:100000000C9493040C9426110C94FF100C94BB04D4
:100010000C94BB040C94B8130C94BB040C94A31262
:100020000C94BB040C94BB040C94BB040C94D91228
:100030000C94BB040C94BB040C9475130C94BB047B
:100040000C94B5100C94BB040C9483100C945D10AC
:100050000C94BB040C9468120C94BB040C94BB0469
:100060000C944D110C94BB040000000023002600EA
:10007000290000000000240027002A0000000000E2
:10008000250028002B0004040404040404040202D4
:100090000202020203030303030301020408102007
:1000A0004080010204081020010204081020000012
:1000B0000008000201000003040700000000000027
:1000C0000000466C6F77203D200050726573203D24
:1000D00020005F00040305050405061614FDFC0E50
:1000E000FC0EFE028805D70834200600602C012192
:1000F00011C4253443E2E0C0424499C44184040061
:100100002209A5644641821702231F8B616449427C
:100110004C424C42E660E26046424C42E660E2609D
:1001200046424C424C420800242349A65B2930AC8D
:100130004622A224A224A422C8E620E420C628A2A3
:1001400024A422A42242A62C300800252CEEE17B18
:1001500065464A64224826444826244A26424A24C0
:10016000DD8870CC98884854884C90884C508C4CD2
:100170008C92A0A8A950002623D0258C8B564452DF
:100180004652467242B478A6C64668822468A66A79
:10019000886A8AA6E620E46604002708A2642EE1A5
:1001A0006000281205A233474464446444466F66E5
:1001B00064668404291105A2334148664666469F59
:1001C0008C888CA8012A12E7E0456524C94484C8BC
:1001D0008844C4489211002B0E4A215C4950A383E5
:1001E0000323418D002C0CE4602B43E22062241B8E
:1001F000002D0865E034E141002E0B84202C43E201
:10020000204202002F10C6213C495190A2204541B6
:100210008A8214013014C9255C676862444662C64C
:10022000BF99901199189A01310CC7295C4768A4AD
:1002300068FFC9013217C9255C87466462C66642F9
:10024000666C6A6C6A4A4CD5C141013319C9255C98
:1002500087466462C66642664C68526E42C6CD846A
:10026000C84C09003419C9255C2F4E6C8A51C44C06
:10027000C848CC48CC44D0C481D4D854013517C91F
:10028000255CE320E22430A14DCCDCD8848C9B0992
:10029000919912003618C9255CA764858C8DC4D845
:1002A000C408C51A6F266426468466003712C9251D
:1002B0005CE141D994989C989CD8AAB18D003818DB
:1002C000C9255C674846428AAAE842C4C824E4A813
:1002D0008AAA46860600391AC9255C6748646246C0
:1002E00062C69B89099289B109191B8991911A00EB
:1002F0003A0F24253443E220424CE2204202003BE4
:100300001084653343E220424CE22062241B003C0F
:100310000C4A215C518C8833420E053D0CC9A45C0B
:10032000E1013DCCC101013E0C4A215C4190674492
:100330009C09023F14C92154A744E4C66642664C96
:10034000F7106254644200402ACF2184EB6C4C4683
:100350003244A644424409898C08898C08858C88DB
:10036000841A110925132222134492316362074132
:1003700000411ECE1D742F5A76963262324430668A
:100380002E662C6AEA40286C286E446E82AA0042CF
:1003900022CC2174E160668664686468646864667F
:1003A000E62068C9D4C4D4C4D4C4D4C4D0C4810C95
:1003B000004318CC2174A92484C598C45821CB0DBE
:1003C00023E622C66268A46A004423CE2184E16049
:1003D0006A88666C646C646E626E626E626E626E77
:1003E000626E626C646C6488E46008004523CB2113
:1003F0006CE1806268624A6226246226246244E8D4
:1004000068446826682624622C624A62E8E0004656
:100410001FCB216CE1806268624A62262462262436
:100420006244E868446826682668709D1500472085
:10043000CD217CA9248684644C644C623062306295
:1004400074D541D8C8D4C8D40C09554904004822F1
:10045000CE2184A1A8626C646C646C646C646CE4EE
:10046000A0646C646C646C646C646C646CA2A800C2
:10047000490BC5254CA16264FF8B024A15CA1D6455
:10048000AB6C6E9FC84C904C904C088D880C110141
:100490004B20CE2184A1A6644A68486A466C446E0B
:1004A00042D0F06E826C846A866888668AA2C60032
:1004B0004C11CA2164A16C6E7F1531153124317342
:1004C000604D33D1219CC1AC848CA68A26622862FF
:1004D00026642662266426622664246426662264D4
:1004E000266622642686662668662668666428680C
:1004F000A226A6004E25CE218481AA826A862A8859
:100500002AA828054D500849500C45505051145107
:100510001451D8CC98485908004F18CE2184C98C62
:1005200084666C646C62D00F27C646C66648C88C69
:1005300000501ACC2174E140688664886288628821
:1005400062886286E420687287750051204E22839B
:10055000C98C84666C646C62D02F682646464466FB
:10056000246628CA8C8527224B47005223CD21843C
:10057000E1806688646A646A646A6468E6206A6620
:1005800068666886666866686668C26802005319AD
:10059000CA2164872264C590C4540499D59599559D
:1005A00059D5C9444809005413CB216CE1C064CD2E
:1005B0008CCC8CCC4CD0E07E57035522CE2184A12C
:1005C000A8626C642E662E662E662E662E662E66D9
:1005D0002E662E662E662E6848CE0800561FCF1D4A
:1005E00074C1A8826C662E882A6C2A6C2A6E2670CA
:1005F000267222742276783A3C0E00572FD41D9C26
:10060000C1C2A482866866682A8886266C86266CA3
:1006100086268C2282227022642270226422908696
:1006200074687468362C382C0C00581DCF218CC38C
:10063000A486688A466E44D09498B4D450844C689A
:100640006A88668CA2C8005917CD217CC186824A6F
:10065000662A88466A268C22B072740F6F005A1A76
:10066000CC216CE14158D9441845141DE1201DAB43
:1006700008B288B1B28383005B0A04A633C144FF89
:100680004F085C14C8214C414C4E4C4E4C4E4C4EC5
:100690004C4E4C4E4C005D0A04A2338144FF4F0C7B
:1006A0005E0F08A14D474C8A8846440B2122015F0A
:1006B0000849604BE10101600985A43E4166910053
:1006C00061142A215CE3646642688C6662CDC4CC06
:1006D000C4089301621ACC1D6481722F886846A6F3
:1006E00026A626A626A626A6266846246A00631005
:1006F000292154A764C4A86CAB8819191200641A84
:10070000CC216C8F72471423331453135313531398
:10071000531353233344140465142A215C876864FB
:1007200062C8E8E0406E2C6248A604006610C8214A
:100730003C87466257433653FBA80600671FEB21F0
:100740005B5370C46864464846486664C848F220F3
:10075000E820426A424C6248E606006819CC216CE7
:1007600081722F6A48488646864686468646864671
:1007700086264A0A690BC5213463642DC97E516AF5
:1007800010471633697B10A2FD9185850809006B1F
:1007900018CC216C81724F4A668446C226C4AE26AC
:1007A00088466866282A0C6C0AC521348164FF17C4
:1007B000056D1A3321A481A2C286A4846468C9D0BD
:1007C00092A125434B86960CAD28696E182C216C9E
:1007D00081A2868464686468646864686468646824
:1007E000A2A4006F102B2164A7686662CA57133356
:1007F000433500701CAC1D6361848866646A626A5C
:10080000626A626A626A826664826872611D0071ED
:100810001AAC216387446486626A626A626A626AA9
:10082000626A6486886272C302721028214C814217
:1008300084426244626A4735007314292154852238
:1008400044466228C2E8CAAA4822A204007412A739
:100850002144272C4A68C664684F22464228007506
:10086000172C216CA1846468646864686468646897
:100870006468844D050176152A1D4CA164622864C4
:1008800028662468248A8C4E500800771E301D7C10
:10089000A1A2646266286466286684246884248A27
:1008A000848C844E485048080078142B2164C182FF
:1008B0008D0C8554DD5C95048D0C058501791DAB8F
:1008C0002163A166622A642A662668266A226C224F
:1008D0006E70324A266A226E0E007A0F292154E188
:1008E00080A686889B22A203027B0F05A233474481
:1008F00064278A64467623247C07C2315CE1077D45
:100900001005A233414866641B2111913D51037EBD
:100910000C6A246565C541C4C8080000000004FFD6
:10092000FF0000000E1411241FBECFEFD8E0DEBF81
:10093000CDBF11E0A0E0B1E0E2E5F4E302C0059034
:100940000D92AE39B107D9F724E0AEE9B1E001C0AC
:100950001D92A631B207E1F714E0C3E9D4E004C068
:100960002197FE010E941A1AC239D107C9F70E94C5
:10097000EB140C94271A0C940000662329F06A30BB
:1009800019F0862F90E008958FEF9FEF0895CF9292
:10099000DF92EF92FF920F931F93CF93DF93EC01BF
:1009A000842F8770E1E0F0E0082E01C0EE0F0A947A
:1009B000EAF73E2F7E0199E7E90EF11CD7019C91E1
:1009C00010E0923018F41E2F913029F150E0487F4A
:1009D000E8ADF9ADC880D980D60150969C91949F1E
:1009E0006001959FD00C11246C0D7D2D711DDF01D0
:1009F000A60FB71F011115C08C91812B83278D93F2
:100A00002150D1F7DF91CF911F910F91FF90EF907F
:100A1000DF90CF90089530E0D9CF110F330F22230C
:100A200089F39C91912B93279C938F5F8770215022
:100A30008111F3CF9CADA90FB11DF70190819230C8
:100A400028F4913009F031E011E0E9CF31E0E7CF4F
:100A500080E0089580E00895CF92DF92EF92FF92B8
:100A60000F931F93CF93DF9300D000D01F92CDB789
:100A7000DEB7C090D1030091D203E0919703F091CB
:100A80009803D188102FF12CE12CE0919703F0917D
:100A9000980380892091CF033091D0031C821D835D
:100AA0008B8348E0849FC00111248E9DA0018F9DFF
:100AB000500D9E9D500D1124240F351F3A8329831C
:100AC000E0919B03F0919C039E012F5F3F4F41E01B
:100AD0006FE087E993E009951F5F812F801B8C15DC
:100AE00028F48FEFE81AF80A1D1578F20F900F908E
:100AF0000F900F900F90DF91CF911F910F91FF906A
:100B0000EF90DF90CF9008959B01DC011896ED9156
:100B1000FC9141E067E10994AF92BF92CF92DF92DE
:100B2000EF92FF920F931F93CF93DF936C017B01A2
:100B30008B01040F151FEB015E01AE18BF08C01733
:100B4000D10759F06991D601ED91FC910190F081A6
:100B5000E02DC6010995892B79F7C501DF91CF9169
:100B60001F910F91FF90EF90DF90CF90BF90AF90CB
:100B70000895FC01538D448D252F30E0842F90E0A3
:100B8000821B930B541710F0CF9608950197089588
:100B9000FC01918D828D981761F0A28DAE0FBF2F51
:100BA000B11D5D968C91928D9F5F9F73928F90E0A7
:100BB00008958FEF9FEF0895FC01918D828D981716
:100BC00031F0828DE80FF11D858D90E008958FEF53
:100BD0009FEF0895FC01918D228D892F90E0805C1C
:100BE0009F4F821B91098F739927089586E792E0A2
:100BF0000E94EA0521E0892B09F420E0822F089564
:100C000080E090E0892B29F00E94F60581110C9478
:100C100000000895FC01A48DA80FB92FB11DA35A9F
:100C2000BF4F2C91848D90E001968F739927848F0C
:100C3000A689B7892C93A089B1898C91837080642F
:100C40008C93938D848D981306C00288F389E02DD0
:100C500080818F7D80830895EF92FF920F931F9381
:100C6000CF93DF93EC0181E0888F9B8D8C8D98135F
:100C70001AC0E889F989808185FF15C09FB7F8946B
:100C8000EE89FF896083E889F989808183708064B7
:100C900080839FBF81E090E0DF91CF911F910F9102
:100CA000FF90EF900895F62E0B8D10E00F5F1F4F11
:100CB0000F731127E02E8C8D8E110CC00FB607FC20
:100CC000FACFE889F989808185FFF5CFCE010E94AE
:100CD0000A06F1CFEB8DEC0FFD2FF11DE35AFF4F0C
:100CE000F0829FB7F8940B8FEA89FB89808180623C
:100CF000CFCFCF93DF93EC01888D8823B9F0AA89F9
:100D0000BB89E889F9898C9185FD03C0808186FDC6
:100D10000DC00FB607FCF7CF8C9185FFF2CF808115
:100D200085FFEDCFCE010E940A06E9CFDF91CF917A
:100D30000895833081F028F4813099F08230A9F051
:100D400008958730A9F08830C9F08430B1F48091DB
:100D500080008F7D03C0809180008F77809380001A
:100D6000089584B58F7784BD089584B58F7DFBCFBA
:100D70008091B0008F778093B00008958091B0008B
:100D80008F7DF9CF1F93CF93DF93282F30E0F901A8
:100D9000E255FF4F8491F901E656FF4FD491F901D6
:100DA000EA57FF4FC491CC23A9F0162F81110E945E
:100DB0009906EC2FF0E0EE0FFF1FE458FF4FA591CE
:100DC000B4918FB7F894EC91111108C0D095DE233F
:100DD000DC938FBFDF91CF911F910895DE2BF8CF69
:100DE000CF93DF9390E0FC01E656FF4F24918A57A2
:100DF0009F4FFC0184918823C9F090E0880F991FD0
:100E0000FC01EE58FF4FA591B491FC01E458FF4F4F
:100E1000C591D49161110DC09FB7F8948C91209524
:100E200082238C938881282328839FBFDF91CF91D1
:100E30000895623051F49FB7F8943C91822F8095C9
:100E400083238C93E8812E2BEFCF8FB7F894EC910E
:100E50002E2B2C938FBFEACF3FB7F894809143029B
:100E600090914402A0914502B091460226B5A89BFC
:100E700005C02F3F19F00196A11DB11D3FBFBA2F2C
:100E8000A92F982F8827BC01CD01620F711D811DEC
:100E9000911D42E0660F771F881F991F4A95D1F771
:100EA0000895089585ED8093BC008091BC0084FD79
:100EB000FCCF1092180208952091F401260F3327D9
:100EC000331F21323105ECF420911802FC0190E02F
:100ED00080E0243069F082E00895A091F40121912E
:100EE000AC014C525E4FA40FB52FB11D2C9301964F
:100EF000861798F38091F401680F6093F40180E005
:100F0000089581E0089508958FEF9FEF08958FEF82
:100F10009FEF08958091D30190E09195819591097B
:100F20000895CF93DF93CB01EA01642F0E945C0701
:100F3000CE01DF91CF910895CF93DF931F92CDB76C
:100F4000DEB7698361E0CE0101960E945C0781E013
:100F500090E00F90DF91CF910895DC011A96ED910A
:100F6000FC9130E020E00994DC011696ED91FC91B3
:100F700030E020E040E069E10994DC011696ED9153
:100F8000FC9130E020E040E068E109949A01DC0146
:100F90001696ED91FC91462F67E10994EF92FF922E
:100FA0000F931F93CF93DF931F92CDB7DEB77C01D2
:100FB0008B01D8016C91673129F150F46531A0F4AF
:100FC0000F90DF91CF911F910F91FF90EF900895B7
:100FD0006A3118F16E3FA1F7F8014181498369E256
:100FE000C7010E94AD070BC0F80141814983D701B9
:100FF0001696ED91FC9130E020E0C70109950E5F57
:101000001F4FD7CFF80181818983AE014F5F5F4FBA
:1010100061E0C7010E94C607F2CF0F5F1F4FD701E3
:101020001696ED91FC9130E020E040E0C701099573
:10103000C0CF462FDC011696ED91FC9130E020E008
:1010400066E10994462FDC011696ED91FC9130E0A3
:1010500020E065E10994EF92FF920F931F93CF93E5
:10106000DF93EC01042F79016D3009F446C050F490
:101070006B30C9F1693009F49FC06A3009F465C06A
:1010800080E046C06E3009F452C06F3099F70E947C
:10109000BD07F7011381110F110F110F6C89160F86
:1010A00060E4CE010E942208612F62956F7060613A
:1010B000CE010E942208612F6F70CE010E94190894
:1010C000F7016481606BCE010E941908F70140812D
:1010D00051816281660F660F660FCE010E94C607BE
:1010E0000150A1F72EC061E271E0442311F06CE1E0
:1010F00071E0CE010E94CE070AC0411110C065E127
:1011000071E00E94CE07E881F98182898C8B81E0B1
:10111000DF91CF911F910F91FF90EF9008956EE0B6
:1011200071E00E94CE07E881F9818389EFCF0E94A8
:10113000BD0761E8CE010E942208602FCE010E9407
:101140001908CE010E94B407E2CFEA85FB8530E0A2
:1011500020E040E068E2CE010995EE81FF8130E0B9
:1011600020E040E064E1CE01099541E06BE4CE016E
:101170000E94AD07E881F981448169E2CE010E94B5
:10118000AD0740E06BE4CE010E94AD07E881F98134
:10119000448169E2CE010E94AD0741E06BE4CE01DB
:1011A0000E94AD07E881F981458169E2CE010E9484
:1011B000AD0766E271E09DCF8BE591E0998388836E
:1011C0001C8AA5CFCF93DF931F92CDB7DEB769837B
:1011D000BE016F5F7F4F0E9484050F90DF91CF911A
:1011E0000895462FDC011896ED91FC9130E020E047
:1011F00060E20994EF92FF920F931F93CF93DF93D6
:101200008C01C62FD42F7901673130F46531B8F4E1
:10121000643131F080E01BC0673101F16A31D0F7F1
:10122000D8011896ED91FC9197014D2F6C2FC801B4
:10123000DF91CF911F910F91FF90EF90099460E0A3
:101240000E94F1086D2FC8010E94E20881E0DF9141
:10125000CF911F910F91FF90EF90089561E00E9450
:10126000F108DECF0F93DC01DE963C91DE97431B45
:10127000D496ED91FC9109950F910895CF93DF934A
:10128000FC01A081B18182AD982F990F990F990F20
:1012900095AF50969C915097903208F09FE1990F2E
:1012A000990F990F94AF23AD922F990F990F990F22
:1012B00096AF51963C915197682F620F7727771F11
:1012C0003617170614F4832F821B97AFEF01C05C0B
:1012D000DF4F880F880F880F890F8883219680EF52
:1012E000888354968D919C915597813F910508F480
:1012F0008883EE5BFF4F56968C918083DF91CF9170
:1013000008950F93FC01EB5BFF4F308131965081C4
:10131000451730F4301738F0041728F080E013C078
:101320003017D0F3FBCFFC01ED5BFF4F30818C5BBE
:101330009F4FFC018081681740F481E0321718F05C
:1013400081E0261758F70F9108953217C8F3E6CFBA
:101350002F923F924F925F926F927F928F929F92C5
:10136000AF92BF92CF92DF92EF92FF920F931F93B3
:10137000CF93DF93EC014C0183E4880E911CF401C0
:101380001082329720805E01F4E4AF0EB11CF501AB
:1013900020823FAC6E01F5E4CF0ED11CF601308205
:1013A000359740807E01F6E4EF0EF11CF701408294
:1013B00034961081329760803196708032975080D9
:1013C000012F262D472D652DCE010E948109CD5874
:1013D000DF4F811114C01882DF91CF911F910F91BF
:1013E000FF90EF90DF90CF90BF90AF909F908F9045
:1013F0007F906F905F904F903F902F90089581E085
:101400008883552011F0F4015082621410F4F50124
:101410006082371410F4F60170821415E8F6F701B3
:101420001083DACF0F93DC01802FFD01ED58FF4FC1
:1014300090819923E9F12223D9F1223020F0023062
:1014400079F56F5F621B082F0170FD0180FD32C0CE
:10145000EB5BFF4F8081481758F131968081481728
:1014600038F53297908131978081260F2617F0F456
:101470006917D8F42FEF290F8217D0F4681708F4F2
:10148000682F291708F4922F961BD696ED91FC91A0
:10149000D7970480F581E02D292FCD01099508C04B
:1014A000033089F64F5F421BCECF682F691720F3B8
:1014B0000F910895ED5BFF4F80816817C8F3319657
:1014C00080816817A8F73296908131978081240F28
:1014D000241778F4491760F42FEF290F821740F78B
:1014E000481708F4482F291708F4922F941BCDCFE2
:1014F000482F4917E8F6F2CF213039F020F022309A
:1015000031F0840F0895860F0895841B0895861B7B
:101510000895213039F020F0223031F0861B0895F3
:10152000840F0895860F0895841B08955F926F922B
:101530007F928F929F92AF92BF92CF92DF92EF9263
:10154000FF920F931F93CF93DF935C01162F642EAE
:10155000EC01C15BDF4FDC80ED804C0189E7880E38
:10156000911CFE80FD18C12EF11608F4CF2C5B8073
:101570000C85202F4E2D6D2D8A810E947C0A782E9D
:10158000202F4E2D6D2D852D0E94890A482F662013
:1015900071F08A85F40180832C2D672DC5010E948E
:1015A000120A1F1548F01F19E394D12CDACF898550
:1015B0008111F7CF8B85EECF1D0D1C83ED82DF915E
:1015C000CF911F910F91FF90EF90DF90CF90BF9040
:1015D000AF909F908F907F906F905F900895DC0107
:1015E00018964C911897ED91FC911197249130E049
:1015F000042E02C0359527950A94E2F7842F860FB2
:10160000883068F031961196FC93EE93E49198E05F
:10161000941B01C0EE0F9A95EAF72E2B885018966E
:101620008C938FEF9FEF01C0880F6A95EAF7809542
:1016300082230895FC01E60FF11D849190E0982F1C
:1016400088273196E4918E0F911D0895CF93DF93F3
:10165000EC016BAFEEA9FFA90190F081E02D099597
:10166000EEA9FFA90280F381E02DCE01DF91CF9199
:10167000099480E09091D001981768F0E82FF0E08D
:10168000E953FE4F90819EBD00000DB407FEFDCFD3
:101690009EB58F5FEFCF08958F929F92AF92BF92CA
:1016A000CF92DF92EF92FF921F93CF93DF93EC01E3
:1016B0006C32B0F46A32E8F5683241F1693209F40B
:1016C00045C080E06034B0F16F73FE01E60FF11D9C
:1016D000868D8F3F71F1603108F06EC0642F13C0AA
:1016E0006D3209F457C068F384EB860F823048F7F7
:1016F0006F73C60FD11D8E8D41115AC061E00E94DB
:10170000F00660E08E8D0E94C20613C07C012EE1BF
:10171000E20EF11CD0E0F70181917F018F3F31F0A3
:1017200061E0D03108F062E00E94F006DF5FD63160
:1017300091F781E0DF91CF911F91FF90EF90DF90C3
:10174000CF90BF90AF909F908F900895C42ED12CD2
:10175000F12CE12C0E942C074B015C01C114D10437
:10176000E104F10431F30E942C07681979098A0910
:101770009B09683E73408105910580F3F1E0CF1A23
:10178000D108E108F10828EE820E23E0921EA11C88
:10179000B11CE4CF85E090E0433010F082E090E0AF
:1017A000880F991F880F991F05970197F1F7C1CFEF
:1017B00062E00E94F006BDCF282F30E0F901E2552B
:1017C000FF4F8491F901E656FF4FF490F901EA5773
:1017D000FF4F1491112379F081110E949906E12F96
:1017E000F0E0EE0FFF1FE859FF4FA591B491EC9187
:1017F000FE2281E009F480E0898F9BCFCF92DF92B7
:10180000EF92FF920F931F93CF93DF936C01EB0145
:101810007B01E40EF51E10E000E0CE15DF0561F05F
:101820006991D601ED91FC910190F081E02DC60106
:101830000995080F191FF1CFC801DF91CF911F91B2
:101840000F91FF90EF90DF90CF9008952F923F92ED
:101850004F925F926F927F928F929F92AF92BF92C0
:10186000CF92DF92EF92FF920F931F93CF93DF936C
:1018700000D000D000D0CDB7DEB77C016C0124E0F1
:10188000C20ED11CFC01E158FF4F0190F081E02D08
:10189000C60109958C018E3F9F4F08F05BC0370150
:1018A00082E8680E711CF301F081FB83470121E897
:1018B000820E911CF401F081FD839701215A3F4F64
:1018C0003A832983F9018081813009F46AC008F4E0
:1018D0005CC0823009F471C0833009F47AC0F7012A
:1018E000EB5AFF4F2D81208331963B813083379710
:1018F0008081918147969C838B830F3F110511F066
:1019000008F015C1B4960136110530F40134110503
:1019100058F0F701EF58FF4F808191812B813C8176
:10192000280F391F3C832B838B819C810196FC01FE
:10193000249121115AC0412CE981FA8180818130A2
:1019400009F492C108F48BC1823009F48FC183304D
:1019500009F491C181E090E026960FB6F894DEBFBD
:101960000FBECDBFDF91CF911F910F91FF90EF90F0
:10197000DF90CF90BF90AF909F908F907F906F90AF
:101980005F904F903F902F900895F701EF5AFF4FCF
:101990000190F081E02DC6010995FB81F80FFB83D2
:1019A0009ECFF701EF5AFF4F0190F081E02DC60165
:1019B00009952D81281B2D8392CFF701EF5AFF4FF8
:1019C0000190F081E02DC60109953B81381B3B83D6
:1019D00086CFF701EF5AFF4F0190F081E02DC6014D
:1019E00009959D81980F9D837ACFEB81FC8124918D
:1019F0002017110609F094C0CF010296009709F450
:101A00009ACFF701ED5AFF4FFE83ED8391838083D8
:101A10001086719660818D819E810E94EF0AED8112
:101A2000FE818683F701EB59FF4F60818D819E8196
:101A30000E94EF0A582EED81FE818783970123587B
:101A40003F4F3C832B83F9019081ED81FE8192878A
:101A500081E0911180E0ED81FE818387F701EA59F1
:101A6000FF4FB0806B2D8D819E810E94EF0A382E32
:101A7000F701E959FF4F2080622D8D819E810E94E0
:101A8000EF0A182FF701E859FF4F0081602F8D8171
:101A90009E810E94EF0A015021E030E0A90101C0BF
:101AA000440F0A95EAF7482E441AED81FE8106811B
:101AB00010160CF041CFBA94C90101C0880FBA9436
:101AC000EAF7381AB484150D2A9401C0220F2A941B
:101AD000EAF7A22EA11A2B2D4A2D632D82810E9496
:101AE0007C0A182FED81FE8182832B2D4A2D632DD8
:101AF00083810E94890AED81FE818383F1E0BF1614
:101B000009F493C0BF1608F450C022E0B21609F4DD
:101B100092C033E0B31609F499C0082F212F49C0B1
:101B2000FC0184912B813C81280F311DFBCEF701F4
:101B3000EB58FF4F80819181EB81FC81E80FF91F09
:101B4000FC83EB835F0160E0C5010E941A0B2B81CF
:101B50003C81280F391F3C832B8362E0C5010E9422
:101B60001A0B34E0A30EB11C8017910760F3EB81D0
:101B7000FC81849190E0982F88273196E4918E2BF8
:101B8000009709F4D8CE0817190721F48B819C819E
:101B9000039634CFEB81FC813296E4912B813C811A
:101BA0002E0F311D3C832B83E2CF202F210F082FD6
:101BB000050D482F612FC6010E948109882309F471
:101BC000BBCEED81FE81148215825701F2E6AF0E85
:101BD000B11C23E6E20EF11CF50160818D819E812E
:101BE0000E94EF0A082FF70160818D819E810E947B
:101BF000EF0A182F40E0602FC6010E94960A41E0CC
:101C0000612FC6010E94960A61E08D819E810E942B
:101C1000EF0A8111EFCFED81FE8185818515E4F218
:101C20008285EB81FC81808387CEB51821E0210F6E
:101C3000080F1B0DBECF91E0392F301B21E0210F83
:101C4000951901E0080F890F130FB3CF212F250D30
:101C5000982F901B01E0080F81E0890FAACFF401B3
:101C60008081480E408276CEF301FACFF401808164
:101C7000841980836FCEF301FACF0F931F93CF9314
:101C8000DF938C01D0E0C0E0F801EC0FFD1F649100
:101C9000662341F083E993E00E94260C892B11F022
:101CA0002196F2CFCE01DF91CF911F910F91089530
:101CB000089590E080E0089561E088E00E94C20607
:101CC00060E08EE00E94C2068091510280648093A1
:101CD0005102809151028F778093510210925302EA
:101CE000109254021092550210925602089560E02C
:101CF00088E00E94C20661E08EE00E94C2068091E8
:101D000051028F7B809351028091510280688093B1
:101D100051020895FB0101900020E9F73197AF01CE
:101D2000461B570BDC01ED91FC910280F381E02D05
:101D300009948F929F92AF92BF92EF92FF920F936E
:101D40001F93CF93DF93CDB7DEB7A1970FB6F8946B
:101D5000DEBF0FBECDBF7C01FA01CB0119A222303C
:101D600008F42AE08E010F5D1F4F822E912CB12CBA
:101D7000A12CBF01A50194010E94E919F901CA0132
:101D80006A300CF5605DD8016E938D01232B242BF6
:101D9000252B79F790E080E0109721F0BD01C70175
:101DA0000E948A0EA1960FB6F894DEBF0FBECDBF7B
:101DB000DF91CF911F910F91FF90EF90BF90AF9067
:101DC0009F908F900895695CDECFCF92DF92EF9263
:101DD000FF920F931F93CF93DF936B01770FEE0862
:101DE000FF08F7FE1FC0EC01E881F9810190F08146
:101DF000E02D6DE209958C0144275527BA014C1955
:101E00005D096E097F092AE0CE010E94990E800FBC
:101E1000911FDF91CF911F910F91FF90EF90DF9075
:101E2000CF9008952AE0B701A601DF91CF911F91CD
:101E30000F91FF90EF90DF90CF900C94990EBC0122
:101E400086E792E00C948A0EFC01A081B181509645
:101E50002C9182AD38E0839FC0011124289FA001FE
:101E6000299F500D112470E060E080AD91AD0C947D
:101E7000201ACF93DF93EC01FC01E658FF4F8081DD
:101E8000882319F0CE010E94240F60E0CE01DF917B
:101E9000CF910C94260BCF92DF92EF92FF920F938B
:101EA0001F93CF93DF93EC01D42E683109F4A8C0BF
:101EB00078F4643109F458C06731D1F080E0DF91E3
:101EC000CF911F910F91FF90EF90DF90CF900895E9
:101ED000693109F4DBC0603289F780E091E041119B
:101EE00002C090E080E09093D2018093D10186C03F
:101EF000E90107E010E0B7ECEB2EB1E0FB2E89E042
:101F0000C82EDD2009F47AC029918091D001E82FF4
:101F1000F0E04091D1015091D201240F352F311DB5
:101F2000A8014E1B5F0B02C0220F331F4A95E2F738
:101F3000E953FE4F9081932B90838F5F8093D00164
:101F4000E82FF0E0E953FE4F9081292B2083883061
:101F500049F40E94390BD701EC2D1D92EA95E9F75F
:101F60001092D001DA94CDCFE881F9818C859D85DE
:101F7000AE85BF85892B8A2B8B2B41F4808591857B
:101F8000A285B3858C879D87AE87BF87418169E431
:101F9000CE010E94AD07CFB7F8948091C6018111A0
:101FA00027C0E0E9F0E08491E4EAF0E09491E82FC2
:101FB000F0E0EE0FFF1FEE58FF4FA591B491EC91AA
:101FC000E92321F461E08AE00E94C20661E08AE030
:101FD0000E94F0068CB580618CBD8CB580648CBD90
:101FE00061E08DE00E94F00661E08BE00E94F00667
:101FF0008091C6018F5F8093C601CFBF81E05FCF24
:10200000E881F981E485E15090E0E33020F4F0E0EC
:10201000E55FFE4F90810C851D852E853F8540E054
:1020200052E16AE770E080E00417150726073707DA
:1020300040F476956795579547958F5F8630A1F761
:1020400087E09C709065282F2695922B8095817053
:102050009CBD8DBDE881F981408169E4CE010E947B
:10206000AD07A881B981EA85FB8530E020E01296B2
:102070004C916CE2CE010995E7ECF1E089E0DF01DB
:102080001D928A95E9F71092D001B8CFA881B98145
:10209000EA85FB8530E020E013964C916CE20995CF
:1020A0008091D00181110E94390BE881F981418131
:1020B00069E4CE010E94AD07A1CF1F920F920FB627
:1020C0000F9211242F933F934F935F936F937F93BE
:1020D0008F939F93AF93BF93EF93FF9386E792E025
:1020E0000E940A06FF91EF91BF91AF919F918F914E
:1020F0007F916F915F914F913F912F910F900FBE04
:102100000F901F9018951F920F920FB60F921124E7
:102110002F938F939F93EF93FF93E0918602F0911B
:1021200087028081E0918C02F0918D0282FD1BC0BC
:10213000908180918F028F5F8F7320919002821720
:1021400041F0E0918F02F0E0EA58FD4F958F8093C7
:102150008F02FF91EF919F918F912F910F900FBE62
:102160000F901F9018958081F4CF1F920F920FB699
:102170000F9211242F933F938F939F93AF93BF930D
:1021800080913F0290914002A0914102B0914202A1
:1021900030913E0223E0230F2D3758F50196A11D03
:1021A000B11D20933E0280933F0290934002A09382
:1021B0004102B09342028091430290914402A09167
:1021C0004502B09146020196A11DB11D80934302C4
:1021D00090934402A0934502B0934602BF91AF9101
:1021E0009F918F913F912F910F900FBE0F901F9055
:1021F000189526E8230F0296A11DB11DD2CF1F927C
:102200000F920FB60F9211242F933F934F935F932A
:102210006F937F938F939F93AF93BF93EF93FF93AE
:10222000E0910501F09106010995FF91EF91BF91B1
:10223000AF919F918F917F916F915F914F913F915E
:102240002F910F900FBE0F901F9018951F920F9215
:102250000FB60F9211242F933F934F935F936F9379
:102260007F938F939F93AF93BF93EF93FF93E091EF
:102270000301F09104010995FF91EF91BF91AF9196
:102280009F918F917F916F915F914F913F912F918E
:102290000F900FBE0F901F9018951F920F920FB6C0
:1022A0000F9211242F933F934F935F936F937F93DC
:1022B0008F939F93AF93BF93EF93FF938091B90058
:1022C000887F803609F44AC0F0F5883209F4A5C049
:1022D00018F5803109F499C0B8F4882309F4F5C0E1
:1022E000883009F492C0FF91EF91BF91AF919F9117
:1022F0008F917F916F915F914F913F912F910F90AF
:102300000FBE0F901F901895883109F486C0803257
:1023100051F78093170214C0803409F49BC040F435
:102320008033B9F38833F9F68093170285ECAEC099
:10233000803509F483C0883509F494C0883499F64F
:102340000E945207D0CF883909F48AC038F58837FF
:1023500029F050F4883611F0803729F683E0809315
:1023600018021092160255C0883809F479C08039D5
:1023700019F0803809F0B7CF80911602803208F04A
:102380006FC0E091160281E08E0F8093160280915B
:10239000BB00F0E0EA50FE4F80833BC0803B39F049
:1023A000D0F4803A09F477C0883A09F09CCF84E0F1
:1023B000809318021092F5011092F401F0E0E0E031
:1023C00009958091F40181110FC081E08093F4019F
:1023D0001092D40109C0803C09F4A8CF883C09F4CC
:1023E000A5CF883B09F07FCFE091F50181E08E0F0A
:1023F0008093F501F0E0EC52FE4F80818093BB00AA
:102400009091F5018091F40129C080913D02809363
:10241000BB0085EC8093BC0066CF90913C0280911C
:102420003B02981758F5E0913C0281E08E0F8093B3
:102430003C02F0E0E55EFD4F8081E9CFE0913C0297
:1024400081E08E0F80933C028091BB00F0E0E55E5E
:10245000FD4F808390913C0280913B029817C8F217
:1024600085E8D8CFE0913C0281E08E0F80933C025A
:102470008091BB00F0E0E55EFD4F808380911A0201
:1024800081115ECF81E08093190284EA8093BC00C1
:102490001092180228CF85EC8093BC00109218028D
:1024A00080911602803230F4E0911602F0E0EA509A
:1024B000FE4F10826091160270E086EF91E0F0E02E
:1024C000E0E00995109216020ECF1092170238CF55
:1024D0001F920F920FB60F9211242F933F938F9359
:1024E0009F93EF93FF9390917800209179008091D2
:1024F000C501E82FF0E0322F292FEE0FFF1FE05A21
:10250000FD4F318320838F5F8330D1F08093C501ED
:1025100080917C00807780937C0090917C008091FA
:10252000C5018B5F892B80937C00FF91EF919F9178
:102530008F913F912F910F900FBE0F901F90189584
:102540001092C501E5CF1F920F920FB60F92112482
:102550002F933F934F935F936F937F938F939F93AB
:10256000AF93BF93EF93FF938091510284FF1AC002
:10257000809151028F7E8093510260E08CE00E9436
:10258000C206FF91EF91BF91AF919F918F917F9183
:102590006F915F914F913F912F910F900FBE0F90D0
:1025A0001F9018958091510280618093510261E0E3
:1025B000E5CF1F920F920FB60F9211242F933F93E6
:1025C0004F935F936F937F938F939F93AF93BF933B
:1025D000EF93FF938091C4018F5F803299F08093D5
:1025E000C401FF91EF91BF91AF919F918F917F9126
:1025F0006F915F914F913F912F910F900FBE0F9070
:102600001F9018951092C4014091530250915402AA
:102610006091550270915602809157029091580234
:10262000A0915902B0915A02481759076A077B07CF
:1026300059F4809152028E7F8093520280918000E3
:102640008F7B80938000CDCF8091520281608093F8
:1026500052028091800080648093800040915302F8
:102660005091540260915502709156028091570228
:1026700090915802A0915902B0915A0248175907F7
:102680006A077B07E8F4809152028D7F80935202A3
:1026900060E08AE00E94C206809153029091540249
:1026A000A0915502B09156020196A11DB11D8093D3
:1026B000530290935402A0935502B093560291CFC7
:1026C0008091520282608093520261E08AE00E940F
:1026D000C2068091530290915402A0915502B0918C
:1026E00056020197A109B109E2CF1F920F920FB6CE
:1026F0000F9211242F933F938F939F932091C201A8
:102700003091C30120FF09C080910201882329F084
:102710008091020181508093020180910101811119
:1027200006C08AE08093010181E080937502243F16
:10273000314039F481E0809350021092C30110922D
:10274000C2018091C2019091C30101969093C3018F
:102750008093C201809101018150809301019F917A
:102760008F913F912F910F900FBE0F901F90189552
:102770001F920F920FB60F9211242F933F934F93F6
:102780005F936F937F938F939F93AF93BF93EF93D9
:10279000FF9399B1907F80910001981740F584E6EE
:1027A000809302019093000160E088E00E94C206DD
:1027B00060E08EE00E94C206809151028F7B809380
:1027C0005102809151028F7780935102FF91EF91D6
:1027D000BF91AF919F918F917F916F915F914F9139
:1027E0003F912F910F900FBE0F901F9018959091D1
:1027F000020191110FC02091510290E080959095B7
:1028000034E0959587953A95E1F78F70207F822B7C
:102810008093510280EF80930001C6CFCF93109236
:1028200079021092780288EE93E0A0E0B0E0809305
:102830007A0290937B02A0937C02B0937D0287E79B
:1028400091E0909377028093760285EC90E09093EC
:1028500083028093820284EC90E0909385028093BF
:10286000840280EC90E0909387028093860281EC52
:1028700090E0909389028093880282EC90E090939C
:102880008B0280938A0286EC90E090938D02809375
:102890008C0210928F02109290021092910210926C
:1028A000920210929603109295038DEB94E0909310
:1028B00013048093120410921404109215041092C1
:1028C000AF0389E891E0909394038093930310926F
:1028D0009803109297031092AC031092A3031092E6
:1028E000A4031092A5031092A6038FEF8093AD036B
:1028F0008093B103E5EBF3E08BEC93E0CFEFC19372
:102900008E179F07E1F78BE298E090939C038093EA
:102910009B038AEF98E090939E0380939D038BE442
:102920009FE09093A00380939F038CE49BE090939F
:10293000A2038093A10330E020E040E069E087E952
:1029400093E00E942B081092E3031092E20387ECBD
:1029500094E09093CC038093CB0383E193E0909336
:10296000D0038093CF0381E08093D1031092D203F0
:102970001092EF0310920F048093100480931104BF
:1029800081E991E09093CE038093CD0387E993E0B2
:102990000E943E091092DE031092E003C093DF0311
:1029A000C093E103E091CD03F091CE030280F38167
:1029B000E02D87E993E009958AE295E09093E5039D
:1029C0008093E4031092F2038FE08093BE03C093E0
:1029D000C003CF910895789484B5826084BD84B596
:1029E000816084BD85B5826085BD85B5816085BD0A
:1029F00080916E00816080936E00109281008091C2
:102A00008100826080938100809181008160809349
:102A10008100809180008160809380008091B1006E
:102A200084608093B1008091B00081608093B00099
:102A300080917A00846080937A0080917A0082602D
:102A400080937A0080917A00816080937A008091EF
:102A50007A00806880937A001092C10062E082E080
:102A60000E94F00662E083E00E94F00662E084E0EB
:102A70000E94F00662E085E00E94F00662E086E0D7
:102A80000E94F00662E087E00E94F00661E088E0C4
:102A90000E94F00661E08EE00E94F00661E089E0AD
:102AA0000E94F00661E08AE00E94F00661E08CE09E
:102AB0000E94F00661E082E10E94F00660E081E1A0
:102AC0000E94F00661E08FE00E94F00660E088E07E
:102AD0000E94C20660E08EE00E94C20660E089E0CB
:102AE0000E94C20660E08AE00E94C20660E082E1C5
:102AF0000E94C20661E08FE00E94C206E091860259
:102B0000F091870282E08083E0918202F09183025B
:102B10001082E0918402F091850290E190831092FE
:102B20008E02E0918A02F0918B0226E02083E091F0
:102B30008802F0918902908190619083E0918802EF
:102B4000F0918902908198609083E0918802F091E1
:102B50008902908190689083E0918802F0918902C7
:102B600090819F7D908347E75EE0509304014093FE
:102B70000301909169009C7F926090936900E89AAC
:102B80004CE55EE050930601409305019091690089
:102B9000937F986090936900E99A90916D00906F8F
:102BA00090936D00DA9A9091680094609093680019
:102BB00084BDC3E0C5BD9AEF97BD80936E0044EF1E
:102BC00051E0509348024093470242EF53E0509344
:102BD0004A024093490240E951E050934C0240932D
:102BE0004B024AE050E050934E0240934D02109247
:102BF00080009AE09093810044EC5FE95093890053
:102C00004093880080936F008093B0002093B100C0
:102C10001092700060E08CE00E94C20680E2809317
:102C20007E0085E480937C00C0937B0080917A00D5
:102C3000886A80937A00E0919B03F0919C0330E0D6
:102C400020E040E06AE087E993E0099587E993E0B6
:102C50000E94390F0E942C05C091D2038091D103AC
:102C6000C80FE0919703F09198038189C81708F481
:102C7000C1C1E0919B03F0919C0330E020E040E073
:102C800060E187E993E0099560E087E993E00E94BD
:102C9000260BE0919B03F0919C0330E020E040E0A4
:102CA0006BE087E993E009958091E2039091E3035B
:102CB000825D904009F0ACC187E993E00E94390F32
:102CC0003EE5C32EDD24D394E12CF12C4FEA442EB3
:102CD000512C612C712C812C5BEF952E53E1A52E8C
:102CE000B12C10E520E0222E20E0322E08E2809167
:102CF0007502882309F445C18091640290916502B0
:102D000090936702809366028091600290916102C5
:102D100090936902809368028091620290916302AD
:102D200080936A020E945F192EE130E040E050E09B
:102D30000E94B719665F7F4F8F4F9F4F70936C0251
:102D400060936B020E945F19A70196010E94B71958
:102D5000625A7E4F8F4F9F4F70936E0260936D0249
:102D60000E945F19A70196010E94B719625A7E4F0F
:102D70008F4F9F4F7093700260936F020E945F1994
:102D800024E130E040E050E00E94B719665F7F4FD9
:102D90008F4F9F4F70937202609371020E945F1970
:102DA000A30192010E94B7196D5D7F4F8F4F9F4F16
:102DB00070937402609373024091530250915402D5
:102DC000609155027091560280915702909158027D
:102DD000A0915902B0915A02481759076A077B0718
:102DE000C1F480914F028F5F823009F4C4C1809397
:102DF0004F0280914F02882309F4C0C1813009F449
:102E0000E9C180915D0290915E0290935C02809393
:102E10005B0287E991E00E941F0F6091660270914A
:102E2000670286E792E00E94E50E89E991E00E9440
:102E30001F0F609168027091690286E792E00E941C
:102E4000E50E89E991E00E941F0F40916A0250E06F
:102E500070E060E02AE086E792E00E94990E89E93E
:102E600091E00E941F0F60916B0270916C0286E7E7
:102E700092E00E94E50E89E991E00E941F0F4091C7
:102E80006D0250916E0270E060E02AE086E792E009
:102E90000E94990E89E991E00E941F0F40916F02F4
:102EA0005091700270E060E02AE086E792E00E94B4
:102EB000990E89E991E00E941F0F60917102709153
:102EC000720286E792E00E94E50E89E991E00E9495
:102ED0001F0F609173027091740286E792E00E9466
:102EE000E50E89E991E00E941F0F40915302509135
:102EF000540260915502709156022AE086E792E0F2
:102F00000E94990E89E991E00E941F0F409157029B
:102F1000509158026091590270915A022AE086E756
:102F200092E00E94990E89E991E00E941F0F609142
:102F30005B0270915C0286E792E00E94E50E89E9EF
:102F400091E00E941F0F60915D0270915E0286E722
:102F500092E00E94E50E89E991E00E941F0F4091E6
:102F6000510250E070E060E022E086E792E00E94CB
:102F7000990E6BE971E086E792E00E948A0E10924A
:102F8000750280915002813049F510921404CAE014
:102F9000C09315048AEC90E00E943D0E1093140437
:102FA000C0931504609166027091670283E993E013
:102FB0000E94E50E109214040093150482EC90E038
:102FC0000E943D0E10931404009315046091680252
:102FD0007091690283E993E00E94E50E21143104A7
:102FE00009F485CE0E94F605882309F47FCE0E945D
:102FF000000078CE80911104882321F087E993E0C6
:103000000E94240F6C2F87E993E00E94260B22CEAA
:10301000E2EDF0E0F093E303E093E203E491E09368
:10302000F303E3EDF0E0E491E093F403E4EDF0E08A
:10303000E491E093F503E5EDF0E0E491E093F6032D
:10304000E6EDF0E0E491E093F703E7EDF0E0E491E2
:10305000E093F803E8EDF0E0E491E093F903E9EDA3
:10306000F0E0E491E093FA03EAEDF0E0E491E0931C
:10307000FB03EBEDF0E0E491E093FC03ECEDF0E01A
:10308000E491E093FD03EDEDF0E0E491E093FE03C5
:10309000EEEDF0E0E491E093FF03EFEDF0E0E4917A
:1030A000E0930004E0EEF0E0E491E0930104E1EE4F
:1030B000F0E0E491E0930204E2EEF0E0E491E093CA
:1030C000030461E182ED90E00E941A0B90930504E5
:1030D0008093040463E182ED90E00E941A0B9093C8
:1030E00007048093060465E182ED90E00E941A0BCC
:1030F00090930904809308048091E2039091E30384
:10310000892B09F4D9CD8091000480930C0440915F
:10311000010440930D0490910B04992309F4CCCD44
:10312000913071F490910204891714F490930C0477
:103130008091030484170CF0BFCD80930D04BCCDA7
:103140003091FD032091FF03082E000C990B622F94
:10315000022E000C770B630F711D37FD7A958617D1
:1031600097071CF4320F30930C0424170CF0A4CDF5
:1031700020930D04A1CD10924F023BCE80914902C5
:1031800090914A02B0E0A0E08093570290935802D9
:10319000A0935902B0935A022091470230914802FD
:1031A00095E0220F331F9A95E1F750E040E0C5010A
:1031B000B4010E94B719245131093093890020933A
:1031C0008800809147029091480290935E0280931C
:1031D0005D0217CE80914D0290914E02B0E0A0E0CA
:1031E0008093570290935802A0935902B0935A02C9
:1031F000C0914B02D0914C029E0185E0220F331FFB
:103200008A95E1F750E040E0C501B4010E94B7198A
:10321000245131093093890020938800D0935E02B5
:10322000C0935D02EECD8F929F92AF92BF92CF92EC
:10323000DF92EF92FF92CF93DF93EC016881798167
:103240008A819B81611571058105910521F464E2F4
:1032500079ED8BE597E02DE133EF41E050E00E94FE
:10326000B71949015A019B01AC01A7EAB1E40E94D8
:10327000D6196B017C01ACEEB4EFA50194010E945C
:10328000E419C60ED71EE81EF91EF7FE06C081E03F
:10329000C81AD108E10880E8F80AC882D982EA820F
:1032A000FB82C701B6019F77DF91CF91FF90EF902E
:1032B000DF90CF90BF90AF909F908F9008958F92A6
:1032C0009F92AF92BF92CF92DF92EF92FF92609166
:1032D0000701709108018091090190910A0161151F
:1032E00071058105910521F464E279ED8BE597E0A4
:1032F0002DE133EF41E050E00E94B71949015A0136
:103300009B01AC01A7EAB1E40E94D6196B017C01D4
:10331000ACEEB4EFA50194010E94E419C60ED71ECD
:10332000E81EF91EF7FE06C081E0C81AD108E108C0
:1033300080E8F80AC0920701D0920801E0920901E2
:10334000F0920A01C701B6019F77FF90EF90DF90DE
:10335000CF90BF90AF909F908F900895609307019A
:10336000709308018093090190930A010895052E36
:1033700097FB1EF400940E94CE1957FD07D00E94BF
:10338000E91907FC03D04EF40C94CE1950954095E2
:10339000309521953F4F4F4F5F4F08959095809501
:1033A000709561957F4F8F4F9F4F08950E940B1A24
:1033B000A59F900DB49F900DA49F800D911D112489
:1033C0000895B7FF0C94D6190E94D619821B930B4F
:1033D0000895A1E21A2EAA1BBB1BFD010DC0AA1F56
:1033E000BB1FEE1FFF1FA217B307E407F50720F06E
:1033F000A21BB30BE40BF50B661F771F881F991FE9
:103400001A9469F760957095809590959B01AC0131
:10341000BD01CF010895A29FB001B39FC001A39F3A
:10342000700D811D1124911DB29F700D811D1124FD
:10343000911D0895EE0FFF1F0590F491E02D099462
:10344000DC0101C06D9341505040E0F70895F894BD
:02345000FFCFAC
:10345200F00A64510751070100000004080C181516
:10346200A015C019FF1815A115C819FF1815AE1916
:10347200FF1815AF19FF1815AE15D5168015A81629
:103482003F15D316001540158D161415201600157C
:10349200A115C815DA1612158116CF15D916F11510
:1034A200DB1640152E15A415A619FF0001140A6497
:1034B20064323200127A000004289610080000805C
:1034C200004000000000002C068C05B9057906EAD0
:1034D20005C805DC0500000000260CFE0B590E583D
:0E34E2000E3E09A80932093E002C000D0A001A
:00000001FF
